:100000000C943D000C94A8010C94A8010C94A80138
:100010000C94A8010C94A8010C94A8010C94A801BC
:100020000C94A8010C94A8010C94A8010C94A801AC
:100030000C94A8010C94A8010C94E4000C94A80161
:100040000C94A8010C94A8010C94A8010C94A8018C
:100050000C94A8010C9467000C94A8010C94A801BE
:100060000C94A8010C94A801010001018001010178
:100070000300036201030104800011241FBECFEFBF
:10008000D8E0DEBFCDBFE8E6F0E040E017C0B591B4
:10009000A59135912591059107FD0CC0959185910C
:1000A000EF01F92FE82F05900D92A217B307D9F7AA
:1000B000FE0104C01D92A217B307E1F7E937F40768
:0E00C00031F70E9467010C948A01F894FFCF7B
:1000CE001F920F920FB60F9211242F933F934F93BF
:1000DE005F936F937F938F939F93AF93BF93CF93C2
:1000EE00DF93EF93FF93EAE7F0E0808180618083F6
:1000FE00809102018530B1F0863031F18430B1F556
:10010E00ECE7F0E080818B7F808380818460808348
:10011E0080917900809303010E94AA0185E080936B
:10012E00020138C0ECE7F0E08081807F808380811F
:10013E008560808380917900809303010E94A501E0
:10014E0086E08093020126C0ECE7F0E08081807F9C
:10015E008083808186608083809179008093030103
:10016E000E949F0184E08093020114C0ECE7F0E04E
:10017E008081807F8083808186608083C9E7D0E024
:10018E008881809303010E949F01888180930301DF
:10019E000E94A501FF91EF91DF91CF91BF91AF9199
:1001AE009F918F917F916F915F914F913F912F9181
:0A01BE000F900FBE0F901F901895D0
:1001C8001F920F920FB60F9211242F933F934F93C4
:1001D8005F936F937F938F939F93AF93BF93EF93A7
:1001E800FF9380910101882351F0809100018F5F76
:1001F800809300018F3F69F4109201010AC0809139
:100208000001815080930001811103C081E0809337
:100218000101809100010E94AA01FF91EF91BF9115
:10022800AF919F918F917F916F915F914F913F9186
:0C0238002F910F900FBE0F901F90189593
:10024400ECE7F0E0108280818064808380818660A6
:100254008083808180628083EAE7F0E0108280817D
:1002640088608083808180688083808187608083C8
:020274000895EB
:10027600E0E8F0E01082A1E8B0E01C92808180689E
:10028600808380818A6080838C9184618C9384B121
:10029600826084B98BE990E0909387008093860012
:0202A6000895B9
:1002A800E0EBF0E01082A1EBB0E01C928081806866
:1002B80080838081836080838C9187608C9384B1F4
:0602C800886084B908956E
:1002CE00F8940E9479010E9422010E943B010E9433
:1002DE0054010E9495017894EAE7F0E080818064F1
:0402EE008083FACF40
:1002F20087B18F7C87B98AB180648AB984B18A60F8
:1003020084B9E1E6F0E0108280818068808378948D
:0203120008954C
:10031400EC010E94AF010E94AE01CE010E94B00127
:06032400CE010E94AC01B5
:10032A008AB180648AB984B5836884BD85B58160E1
:04033A0085BD0895E0
:0C033E0090E0909389008093880008955F
:06034A008093B30008954A
:040350000C94000009
:0403540087BD0895C4
:040358000E9465009A
:02035C00089502
:02035E00089500
:020360000895FE
:010362000199
:010363000693
:00000001FF
